:100000000C9446000C9465000C9465000C946500FB
:100010000C9465000C9465000C9465000C946500CC
:100020000C9465000C9465000C9465000C946500BC
:100030000C9465000C9465000C9465000C946500AC
:100040000C9465000C9465000C9465000C9465009C
:100050000C9465000C9465000C9467000C9465008A
:100060000C9469010C9465000C9465000C94650077
:100070000C9465000C9465000C9465000C9465006C
:100080000C9465000C9465000C94650011241FBE4F
:10009000CFEFD0E4DEBFCDBF11E0A0E0B1E0ECEAED
:1000A000F8E000E00BBF02C007900D92AC30B10742
:1000B000D9F721E0ACE0B1E001C01D92A832B2074F
:1000C000E1F70E9453010C9454040C9400001F9219
:1000D0000F920FB60F9211240BB60F922F933F93EE
:1000E0004F935F936F937F938F939F93AF93BF9340
:1000F000EF93FF93E0910C0181E08E0F80930C0150
:10010000F0E0E050FF4F80810E94DF0280910C01FF
:10011000853010F010920C01FF91EF91BF91AF91DB
:100120009F918F917F916F915F914F913F912F910F
:100130000F900BBE0F900FBE0F901F901895EF926F
:10014000FF921F93CF93DF93809111019091120141
:100150008130910509F44FC08230910509F46CC0DB
:10016000892B39F082E090E0909312018093110185
:100170003CC00E94A301CDE0D1E0998388830E9416
:10018000A301282F392F3B832A8388819981E4E1B9
:10019000F1E0918380830196938382833583248366
:1001A0002F5F3F4F378326830E94580190E080E005
:1001B000873023E092071CF400000196F9CFCDE0D0
:1001C000D1E0888199810E94B1018A819B810E943E
:1001D000B10160E076E980E090E00E94AE0281E04B
:1001E00090E09093120180931101DF91CF911F91C4
:1001F000FF90EF900895CDE0D1E0888199810E9431
:1002000099028A819B810E94990286B190E0809533
:10021000909583709927892B41F3888199810E9459
:10022000B8018A819B810E94B80182E090E090939E
:10023000120180931101D9CFC0E0D1E01881107F65
:100240000F2EFDE0EF2EF1E0FF2EF02D60E0F70124
:10025000808191810E94CD01182B18831981107F14
:1002600061E0F701808191810E94CD01182B1983F3
:100270001A81107F60E0F701828193810E94CD0195
:10028000182B1A831B81107F61E0F7018281938113
:100290000E94CD01182B1B8386B186B18C81807F93
:1002A00081608C83A2CF8CEF87B983E088B9FFCFC0
:1002B00080E280937C00EAE7F0E0808188688083B8
:1002C000109213018081806480838FB780688FBF14
:1002D00008951F920F920FB60F9211240BB60F9232
:1002E0008F939F93EF93FF93E0911301F0E0EE0F54
:1002F000FF1FEC5EFE4F0190F081E02D80917900B0
:100300008083809113018F5F809313018430C1F04B
:10031000ECE7F0E08081807F90911301892B80834E
:10032000EAE7F0E0808180648083FF91EF919F9104
:100330008F910F900BBE0F900FBE0F901F901895CE
:1003400010921301E5CF8AE090E00E942C03E82F81
:10035000F92F108211821282148215821782CF0126
:100360000895E82FF92F8081838381818683089502
:10037000E82FF92F84819281891B990B27E030E0C7
:10038000B9010E94E202608787819581891B990BE0
:10039000B9010E94E20261870895CF93DF93E82FAD
:1003A000F92F662309F458C0A181B0E02681622F9D
:1003B00070E08185482F469550E09B01240F351F42
:1003C0002A173B0704F590E09B01280F391FA2175D
:1003D000B3070CF492C09C01220F331F260F371F66
:1003E000A217B3070CF48BC09C01220F331F280FF8
:1003F000391F260F371FA217B3070CF082C087E002
:10040000DF91CF9108959B01241B350BA217B307F1
:100410000CF079C0282F30E0CB01821B930B8A1798
:100420009B070CF472C0C901880F991FAB01481BD0
:10043000590B4A175B070CF46AC0C901880F991F52
:10044000880F991F281B390B260F371F2A173B07C8
:100450000CF05FC081E0D4CFC081D0E02381A22F17
:10046000B0E08085482F469550E09D01240F351F50
:100470002C173D07ECF490E09D01280F391FC2179F
:10048000D3070CF448C09C01220F331F2A0F3B1FD7
:10049000C217D3070CF441C09C01220F331F280F51
:1004A000391F2A0F3B1FC217D307CCF587E0A8CF0F
:1004B0009D01241B350BC217D3079CF5282F30E074
:1004C000CD01821B930B8C179D076CF1C901880F1E
:1004D000991FAD01481B590B4C175D0734F1C90139
:1004E000880F991F880F991F281B390B2A0F3B1F54
:1004F0002C173D07E4F481E083CF85E081CF86E0CF
:100500007FCF88E07DCF84E07BCF83E079CF82E02E
:1005100077CF80E075CF85E073CF86E071CF88E03C
:100520006FCF84E06DCF83E06BCF82E069CF862F01
:1005300067CFE82FF92F80819481981708F484837E
:100540009281891708F4828381819781981708F432
:1005500087839581891708F485830895CF93DF9366
:1005600000D000D0CDB7DEB79B01AC01220F331F06
:10057000441F551F220F331F441F551F220F331FC7
:10058000441F551F220F331F441F551F60E072E1A7
:100590008AE790E00E94F602215031093093C500AD
:1005A0002093C40088E48093C10086E08093C20059
:1005B0000F900F900F900F90DF91CF91089580933F
:1005C000C600089597FB072E16F4009407D077FD18
:1005D00009D00E94180307FC05D03EF49095819540
:1005E0009F4F0895709561957F4F0895A1E21A2E4F
:1005F000AA1BBB1BFD010DC0AA1FBB1FEE1FFF1FC7
:10060000A217B307E407F50720F0A21BB30BE40B16
:10061000F50B661F771F881F991F1A9469F760955D
:100620007095809590959B01AC01BD01CF01089517
:10063000AA1BBB1B51E107C0AA1FBB1FA617B70708
:1006400010F0A61BB70B881F991F5A95A9F7809524
:100650009095BC01CD0108950F931F93CF93DF9325
:100660009C01029710F422E030E0E0912601F09125
:10067000270190E080E0B0E0A0E0309791F400978F
:1006800009F445C0821B930B84309105B8F58A812B
:100690009B816115710569F1FB0193838283FE01E2
:1006A00011C0408151810281138142175307F0F03C
:1006B0004217530799F4109761F012960C93129712
:1006C00013961C933296CF01DF91CF911F910F911A
:1006D00008950093260110932701F4CF009719F095
:1006E0004817590718F4CA01BD01EF01DF01F801ED
:1006F000C4CF9093270180932601D1CFFE01E80F4C
:10070000F91F21933193029799838883DCCF8091DD
:10071000240190912501892B41F48091070190914A
:100720000801909325018093240180910501909107
:100730000601009741F48DB79EB740910901509191
:100740000A01841B950B4091240150912501481703
:10075000590708F0B8CF841B950B8217930708F44C
:10076000B2CFB9016E5F7F4F8617970708F4ABCF02
:10077000640F751F7093250160932401FA01219382
:100780003193A1CFCF93DF939C010097E9F0FC0157
:10079000329713821282C0912601D0912701DE0187
:1007A00090E080E02097A1F480819181280F391F8B
:1007B00080912401909125018217930709F067C069
:1007C000F0932501E0932401DF91CF910895DA01A0
:1007D000AE17BF0708F041C012964D915C91139778
:1007E000CD014115510599F7DC011396FC93EE9369
:1007F00012974D915D91A40FB51FEA17FB0781F485
:10080000208131812E5F3F4F240F351FDC0111966F
:100810003C932E932281338113963C932E9312970F
:10082000B0E0A0E08A819B810097B1F5FE01819143
:100830009191E80FF91F80912401909125018E1765
:100840009F0711F6109759F5109227011092260173
:10085000D0932501C0932401B7CFB383A2834081F5
:100860005181240F351FA217B30771F44E5F5F4FFC
:100870002D913C911197420F531F51834083129643
:100880002D913C9133832283009709F0ADCFF093F3
:100890002701E093260198CFDE01EC01C3CF139628
:0C08A0001C921E921297D4CFF894FFCF48
:0C08AC0004142434410000280120000046
:00000001FF
